{
  "_format": "hh-sol-artifact-1",
  "contractName": "MyEpicNFT",
  "sourceName": "contracts/MyEpicNFT.sol",
  "abi": [
    {
      "inputs": [],
      "stateMutability": "nonpayable",
      "type": "constructor"
    },
    {
      "anonymous": false,
      "inputs": [
        {
          "indexed": true,
          "internalType": "address",
          "name": "owner",
          "type": "address"
        },
        {
          "indexed": true,
          "internalType": "address",
          "name": "approved",
          "type": "address"
        },
        {
          "indexed": true,
          "internalType": "uint256",
          "name": "tokenId",
          "type": "uint256"
        }
      ],
      "name": "Approval",
      "type": "event"
    },
    {
      "anonymous": false,
      "inputs": [
        {
          "indexed": true,
          "internalType": "address",
          "name": "owner",
          "type": "address"
        },
        {
          "indexed": true,
          "internalType": "address",
          "name": "operator",
          "type": "address"
        },
        {
          "indexed": false,
          "internalType": "bool",
          "name": "approved",
          "type": "bool"
        }
      ],
      "name": "ApprovalForAll",
      "type": "event"
    },
    {
      "anonymous": false,
      "inputs": [
        {
          "indexed": false,
          "internalType": "address",
          "name": "sender",
          "type": "address"
        },
        {
          "indexed": false,
          "internalType": "uint256",
          "name": "tokenId",
          "type": "uint256"
        }
      ],
      "name": "NewEpicNFTMinted",
      "type": "event"
    },
    {
      "anonymous": false,
      "inputs": [
        {
          "indexed": true,
          "internalType": "address",
          "name": "previousOwner",
          "type": "address"
        },
        {
          "indexed": true,
          "internalType": "address",
          "name": "newOwner",
          "type": "address"
        }
      ],
      "name": "OwnershipTransferred",
      "type": "event"
    },
    {
      "anonymous": false,
      "inputs": [
        {
          "indexed": true,
          "internalType": "address",
          "name": "from",
          "type": "address"
        },
        {
          "indexed": true,
          "internalType": "address",
          "name": "to",
          "type": "address"
        },
        {
          "indexed": true,
          "internalType": "uint256",
          "name": "tokenId",
          "type": "uint256"
        }
      ],
      "name": "Transfer",
      "type": "event"
    },
    {
      "stateMutability": "payable",
      "type": "fallback"
    },
    {
      "inputs": [],
      "name": "_price",
      "outputs": [
        {
          "internalType": "uint256",
          "name": "",
          "type": "uint256"
        }
      ],
      "stateMutability": "view",
      "type": "function"
    },
    {
      "inputs": [
        {
          "internalType": "address",
          "name": "to",
          "type": "address"
        },
        {
          "internalType": "uint256",
          "name": "tokenId",
          "type": "uint256"
        }
      ],
      "name": "approve",
      "outputs": [],
      "stateMutability": "nonpayable",
      "type": "function"
    },
    {
      "inputs": [
        {
          "internalType": "address",
          "name": "owner",
          "type": "address"
        }
      ],
      "name": "balanceOf",
      "outputs": [
        {
          "internalType": "uint256",
          "name": "",
          "type": "uint256"
        }
      ],
      "stateMutability": "view",
      "type": "function"
    },
    {
      "inputs": [
        {
          "internalType": "uint256",
          "name": "tokenId",
          "type": "uint256"
        }
      ],
      "name": "getApproved",
      "outputs": [
        {
          "internalType": "address",
          "name": "",
          "type": "address"
        }
      ],
      "stateMutability": "view",
      "type": "function"
    },
    {
      "inputs": [
        {
          "internalType": "address",
          "name": "owner",
          "type": "address"
        },
        {
          "internalType": "address",
          "name": "operator",
          "type": "address"
        }
      ],
      "name": "isApprovedForAll",
      "outputs": [
        {
          "internalType": "bool",
          "name": "",
          "type": "bool"
        }
      ],
      "stateMutability": "view",
      "type": "function"
    },
    {
      "inputs": [],
      "name": "makeAnEpicNFT",
      "outputs": [],
      "stateMutability": "payable",
      "type": "function"
    },
    {
      "inputs": [],
      "name": "maxTokenIds",
      "outputs": [
        {
          "internalType": "uint32",
          "name": "",
          "type": "uint32"
        }
      ],
      "stateMutability": "view",
      "type": "function"
    },
    {
      "inputs": [],
      "name": "name",
      "outputs": [
        {
          "internalType": "string",
          "name": "",
          "type": "string"
        }
      ],
      "stateMutability": "view",
      "type": "function"
    },
    {
      "inputs": [],
      "name": "owner",
      "outputs": [
        {
          "internalType": "address",
          "name": "",
          "type": "address"
        }
      ],
      "stateMutability": "view",
      "type": "function"
    },
    {
      "inputs": [
        {
          "internalType": "uint256",
          "name": "tokenId",
          "type": "uint256"
        }
      ],
      "name": "ownerOf",
      "outputs": [
        {
          "internalType": "address",
          "name": "",
          "type": "address"
        }
      ],
      "stateMutability": "view",
      "type": "function"
    },
    {
      "inputs": [
        {
          "internalType": "uint256",
          "name": "tokenId",
          "type": "uint256"
        }
      ],
      "name": "pickRandomColor",
      "outputs": [
        {
          "internalType": "string",
          "name": "",
          "type": "string"
        }
      ],
      "stateMutability": "view",
      "type": "function"
    },
    {
      "inputs": [
        {
          "internalType": "uint256",
          "name": "tokenId",
          "type": "uint256"
        }
      ],
      "name": "pickRandomFirstWord",
      "outputs": [
        {
          "internalType": "string",
          "name": "",
          "type": "string"
        }
      ],
      "stateMutability": "view",
      "type": "function"
    },
    {
      "inputs": [
        {
          "internalType": "uint256",
          "name": "tokenId",
          "type": "uint256"
        }
      ],
      "name": "pickRandomSecondWord",
      "outputs": [
        {
          "internalType": "string",
          "name": "",
          "type": "string"
        }
      ],
      "stateMutability": "view",
      "type": "function"
    },
    {
      "inputs": [
        {
          "internalType": "uint256",
          "name": "tokenId",
          "type": "uint256"
        }
      ],
      "name": "pickRandomThirdWord",
      "outputs": [
        {
          "internalType": "string",
          "name": "",
          "type": "string"
        }
      ],
      "stateMutability": "view",
      "type": "function"
    },
    {
      "inputs": [],
      "name": "renounceOwnership",
      "outputs": [],
      "stateMutability": "nonpayable",
      "type": "function"
    },
    {
      "inputs": [
        {
          "internalType": "address",
          "name": "from",
          "type": "address"
        },
        {
          "internalType": "address",
          "name": "to",
          "type": "address"
        },
        {
          "internalType": "uint256",
          "name": "tokenId",
          "type": "uint256"
        }
      ],
      "name": "safeTransferFrom",
      "outputs": [],
      "stateMutability": "nonpayable",
      "type": "function"
    },
    {
      "inputs": [
        {
          "internalType": "address",
          "name": "from",
          "type": "address"
        },
        {
          "internalType": "address",
          "name": "to",
          "type": "address"
        },
        {
          "internalType": "uint256",
          "name": "tokenId",
          "type": "uint256"
        },
        {
          "internalType": "bytes",
          "name": "_data",
          "type": "bytes"
        }
      ],
      "name": "safeTransferFrom",
      "outputs": [],
      "stateMutability": "nonpayable",
      "type": "function"
    },
    {
      "inputs": [
        {
          "internalType": "address",
          "name": "operator",
          "type": "address"
        },
        {
          "internalType": "bool",
          "name": "approved",
          "type": "bool"
        }
      ],
      "name": "setApprovalForAll",
      "outputs": [],
      "stateMutability": "nonpayable",
      "type": "function"
    },
    {
      "inputs": [
        {
          "internalType": "bytes4",
          "name": "interfaceId",
          "type": "bytes4"
        }
      ],
      "name": "supportsInterface",
      "outputs": [
        {
          "internalType": "bool",
          "name": "",
          "type": "bool"
        }
      ],
      "stateMutability": "view",
      "type": "function"
    },
    {
      "inputs": [],
      "name": "symbol",
      "outputs": [
        {
          "internalType": "string",
          "name": "",
          "type": "string"
        }
      ],
      "stateMutability": "view",
      "type": "function"
    },
    {
      "inputs": [],
      "name": "tokenIds",
      "outputs": [
        {
          "internalType": "uint256",
          "name": "",
          "type": "uint256"
        }
      ],
      "stateMutability": "view",
      "type": "function"
    },
    {
      "inputs": [
        {
          "internalType": "uint256",
          "name": "tokenId",
          "type": "uint256"
        }
      ],
      "name": "tokenURI",
      "outputs": [
        {
          "internalType": "string",
          "name": "",
          "type": "string"
        }
      ],
      "stateMutability": "view",
      "type": "function"
    },
    {
      "inputs": [
        {
          "internalType": "address",
          "name": "from",
          "type": "address"
        },
        {
          "internalType": "address",
          "name": "to",
          "type": "address"
        },
        {
          "internalType": "uint256",
          "name": "tokenId",
          "type": "uint256"
        }
      ],
      "name": "transferFrom",
      "outputs": [],
      "stateMutability": "nonpayable",
      "type": "function"
    },
    {
      "inputs": [
        {
          "internalType": "address",
          "name": "newOwner",
          "type": "address"
        }
      ],
      "name": "transferOwnership",
      "outputs": [],
      "stateMutability": "nonpayable",
      "type": "function"
    },
    {
      "inputs": [],
      "name": "withdraw",
      "outputs": [],
      "stateMutability": "nonpayable",
      "type": "function"
    },
    {
      "stateMutability": "payable",
      "type": "receive"
    }
  ],
  "bytecode": "0x60806040526032600960006101000a81548163ffffffff021916908363ffffffff1602179055506605543df729c000600a5560405180610100016040528060d381526020016200561760d39139600b90805190602001906200006392919062000c84565b50604051806080016040528060578152602001620056ea60579139600c90805190602001906200009592919062000c84565b506040518061016001604052806040518060400160405280600581526020017f736d6f6b6500000000000000000000000000000000000000000000000000000081525081526020016040518060400160405280600981526020017f6d6f6e7374726f7573000000000000000000000000000000000000000000000081525081526020016040518060400160405280600881526020017f7261696c726f616400000000000000000000000000000000000000000000000081525081526020016040518060400160405280600581526020017f646f75627400000000000000000000000000000000000000000000000000000081525081526020016040518060400160405280600781526020017f67656e6572616c0000000000000000000000000000000000000000000000000081525081526020016040518060400160405280600781526020017f73717565657a650000000000000000000000000000000000000000000000000081525081526020016040518060400160405280600581526020017f6275696c6400000000000000000000000000000000000000000000000000000081525081526020016040518060400160405280600581526020017f736b61746500000000000000000000000000000000000000000000000000000081525081526020016040518060400160405280600881526020017f696d70657269616c00000000000000000000000000000000000000000000000081525081526020016040518060400160405280600681526020017f696d6d756e65000000000000000000000000000000000000000000000000000081525081526020016040518060400160405280600a81526020017f706f70756c6174696f6e00000000000000000000000000000000000000000000815250815250600d90600b6200033b92919062000d15565b506040518061016001604052806040518060400160405280600481526020017f736f6c6f0000000000000000000000000000000000000000000000000000000081525081526020016040518060400160405280600881526020017f626972746864617900000000000000000000000000000000000000000000000081525081526020016040518060400160405280600581526020017f746869636b00000000000000000000000000000000000000000000000000000081525081526020016040518060400160405280600881526020017f617070726f76616c00000000000000000000000000000000000000000000000081525081526020016040518060400160405280600681526020017f63726f756368000000000000000000000000000000000000000000000000000081525081526020016040518060400160405280600781526020017f6c6963656e73650000000000000000000000000000000000000000000000000081525081526020016040518060400160405280600a81526020017f73797374656d617469630000000000000000000000000000000000000000000081525081526020016040518060400160405280600c81526020017f636f6e676c6f6d6572617465000000000000000000000000000000000000000081525081526020016040518060400160405280600b81526020017f696d706c69636174696f6e00000000000000000000000000000000000000000081525081526020016040518060400160405280600681526020017f756e72657374000000000000000000000000000000000000000000000000000081525081526020016040518060400160405280600681526020017f636174746c650000000000000000000000000000000000000000000000000000815250815250600e90600b620005e192919062000d15565b506040518061016001604052806040518060400160405280600a81526020017f6d61696e73747265616d0000000000000000000000000000000000000000000081525081526020016040518060400160405280600a81526020017f7265666c656374696f6e0000000000000000000000000000000000000000000081525081526020016040518060400160405280600581526020017f6d6572637900000000000000000000000000000000000000000000000000000081525081526020016040518060400160405280600581526020017f626c65737300000000000000000000000000000000000000000000000000000081525081526020016040518060400160405280600481526020017f626f61740000000000000000000000000000000000000000000000000000000081525081526020016040518060400160405280600581526020017f747261697400000000000000000000000000000000000000000000000000000081525081526020016040518060400160405280600581526020017f646f75627400000000000000000000000000000000000000000000000000000081525081526020016040518060400160405280600381526020017f6f776c000000000000000000000000000000000000000000000000000000000081525081526020016040518060400160405280600981526020017f6c616e647363617065000000000000000000000000000000000000000000000081525081526020016040518060400160405280600681526020017f6f6363757079000000000000000000000000000000000000000000000000000081525081526020016040518060400160405280600981526020017f6d6967726174696f6e0000000000000000000000000000000000000000000000815250815250600f90600b6200088792919062000d15565b506040518060a001604052806040518060400160405280600781526020017f234631363333320000000000000000000000000000000000000000000000000081525081526020016040518060400160405280600781526020017f233044424242390000000000000000000000000000000000000000000000000081525081526020016040518060400160405280600781526020017f233930433339420000000000000000000000000000000000000000000000000081525081526020016040518060400160405280600781526020017f234344363935430000000000000000000000000000000000000000000000000081525081526020016040518060400160405280600781526020017f23443034303530000000000000000000000000000000000000000000000000008152508152506010906005620009ca92919062000d7c565b50348015620009d857600080fd5b506040518060400160405280600981526020017f5371756172654e465400000000000000000000000000000000000000000000008152506040518060400160405280600681526020017f5351554152450000000000000000000000000000000000000000000000000000815250816000908051906020019062000a5d92919062000c84565b50806001908051906020019062000a7692919062000c84565b50505062000a9962000a8d62000aea60201b60201c565b62000af260201b60201c565b62000ae46040518060400160405280601e81526020017f54686973206973206d79204e465420636f6e74726163742e2057686f6121000081525062000bb860201b620017f71760201c565b62000f9d565b600033905090565b6000600760009054906101000a900473ffffffffffffffffffffffffffffffffffffffff16905081600760006101000a81548173ffffffffffffffffffffffffffffffffffffffff021916908373ffffffffffffffffffffffffffffffffffffffff1602179055508173ffffffffffffffffffffffffffffffffffffffff168173ffffffffffffffffffffffffffffffffffffffff167f8be0079c531659141344cd1fd0a4f28419497f9722a3daafe3b4186f6b6457e060405160405180910390a35050565b62000c588160405160240162000bcf919062000eb1565b6040516020818303038152906040527f41304fac000000000000000000000000000000000000000000000000000000007bffffffffffffffffffffffffffffffffffffffffffffffffffffffff19166020820180517bffffffffffffffffffffffffffffffffffffffffffffffffffffffff838183161783525050505062000c5b60201b60201c565b50565b60008151905060006a636f6e736f6c652e6c6f679050602083016000808483855afa5050505050565b82805462000c929062000f27565b90600052602060002090601f01602090048101928262000cb6576000855562000d02565b82601f1062000cd157805160ff191683800117855562000d02565b8280016001018555821562000d02579182015b8281111562000d0157825182559160200191906001019062000ce4565b5b50905062000d11919062000de3565b5090565b82805482825590600052602060002090810192821562000d69579160200282015b8281111562000d6857825182908051906020019062000d5792919062000c84565b509160200191906001019062000d36565b5b50905062000d78919062000e02565b5090565b82805482825590600052602060002090810192821562000dd0579160200282015b8281111562000dcf57825182908051906020019062000dbe92919062000c84565b509160200191906001019062000d9d565b5b50905062000ddf919062000e02565b5090565b5b8082111562000dfe57600081600090555060010162000de4565b5090565b5b8082111562000e26576000818162000e1c919062000e2a565b5060010162000e03565b5090565b50805462000e389062000f27565b6000825580601f1062000e4c575062000e6d565b601f01602090049060005260206000209081019062000e6c919062000de3565b5b50565b600062000e7d8262000ed5565b62000e89818562000ee0565b935062000e9b81856020860162000ef1565b62000ea68162000f8c565b840191505092915050565b6000602082019050818103600083015262000ecd818462000e70565b905092915050565b600081519050919050565b600082825260208201905092915050565b60005b8381101562000f1157808201518184015260208101905062000ef4565b8381111562000f21576000848401525b50505050565b6000600282049050600182168062000f4057607f821691505b6020821081141562000f575762000f5662000f5d565b5b50919050565b7f4e487b7100000000000000000000000000000000000000000000000000000000600052602260045260246000fd5b6000601f19601f8301169050919050565b61466a8062000fad6000396000f3fe60806040526004361061016a5760003560e01c806370a08231116100d1578063b187301f1161008a578063c87b56dd11610064578063c87b56dd14610558578063de9d132f14610595578063e985e9c51461059f578063f2fde38b146105dc57610171565b8063b187301f146104b5578063b88d4fde146104f2578063c575757a1461051b57610171565b806370a08231146103b7578063714cff56146103f4578063715018a61461041f5780638da5cb5b1461043657806395d89b4114610461578063a22cb4651461048c57610171565b80632de38d68116101235780632de38d68146102955780633ccfd60b146102d257806342842e0e146102e9578063514dc8c6146103125780635f7696211461034f5780636352211e1461037a57610171565b806301ffc9a71461017357806306fdde03146101b0578063081812fc146101db578063095ea7b314610218578063235b6ea11461024157806323b872dd1461026c57610171565b3661017157005b005b34801561017f57600080fd5b5061019a60048036038101906101959190612d61565b610605565b6040516101a79190613605565b60405180910390f35b3480156101bc57600080fd5b506101c56106e7565b6040516101d29190613620565b60405180910390f35b3480156101e757600080fd5b5061020260048036038101906101fd9190612db3565b610779565b60405161020f9190613575565b60405180910390f35b34801561022457600080fd5b5061023f600480360381019061023a9190612d25565b6107fe565b005b34801561024d57600080fd5b50610256610916565b6040516102639190613957565b60405180910390f35b34801561027857600080fd5b50610293600480360381019061028e9190612c1f565b61091c565b005b3480156102a157600080fd5b506102bc60048036038101906102b79190612db3565b61097c565b6040516102c99190613620565b60405180910390f35b3480156102de57600080fd5b506102e7610a9a565b005b3480156102f557600080fd5b50610310600480360381019061030b9190612c1f565b610bd8565b005b34801561031e57600080fd5b5061033960048036038101906103349190612db3565b610bf8565b6040516103469190613620565b60405180910390f35b34801561035b57600080fd5b50610364610d16565b6040516103719190613972565b60405180910390f35b34801561038657600080fd5b506103a1600480360381019061039c9190612db3565b610d2c565b6040516103ae9190613575565b60405180910390f35b3480156103c357600080fd5b506103de60048036038101906103d99190612bba565b610dde565b6040516103eb9190613957565b60405180910390f35b34801561040057600080fd5b50610409610e96565b6040516104169190613957565b60405180910390f35b34801561042b57600080fd5b50610434610e9c565b005b34801561044257600080fd5b5061044b610f24565b6040516104589190613575565b60405180910390f35b34801561046d57600080fd5b50610476610f4e565b6040516104839190613620565b60405180910390f35b34801561049857600080fd5b506104b360048036038101906104ae9190612ce9565b610fe0565b005b3480156104c157600080fd5b506104dc60048036038101906104d79190612db3565b610ff6565b6040516104e99190613620565b60405180910390f35b3480156104fe57600080fd5b5061051960048036038101906105149190612c6e565b611114565b005b34801561052757600080fd5b50610542600480360381019061053d9190612db3565b611176565b60405161054f9190613620565b60405180910390f35b34801561056457600080fd5b5061057f600480360381019061057a9190612db3565b611294565b60405161058c9190613620565b60405180910390f35b61059d6113e6565b005b3480156105ab57600080fd5b506105c660048036038101906105c19190612be3565b61166b565b6040516105d39190613605565b60405180910390f35b3480156105e857600080fd5b5061060360048036038101906105fe9190612bba565b6116ff565b005b60007f80ac58cd000000000000000000000000000000000000000000000000000000007bffffffffffffffffffffffffffffffffffffffffffffffffffffffff1916827bffffffffffffffffffffffffffffffffffffffffffffffffffffffff191614806106d057507f5b5e139f000000000000000000000000000000000000000000000000000000007bffffffffffffffffffffffffffffffffffffffffffffffffffffffff1916827bffffffffffffffffffffffffffffffffffffffffffffffffffffffff1916145b806106e057506106df82611890565b5b9050919050565b6060600080546106f690613c21565b80601f016020809104026020016040519081016040528092919081815260200182805461072290613c21565b801561076f5780601f106107445761010080835404028352916020019161076f565b820191906000526020600020905b81548152906001019060200180831161075257829003601f168201915b5050505050905090565b6000610784826118fa565b6107c3576040517f08c379a00000000000000000000000000000000000000000000000000000000081526004016107ba90613897565b60405180910390fd5b6004600083815260200190815260200160002060009054906101000a900473ffffffffffffffffffffffffffffffffffffffff169050919050565b600061080982610d2c565b90508073ffffffffffffffffffffffffffffffffffffffff168373ffffffffffffffffffffffffffffffffffffffff16141561087a576040517f08c379a0000000000000000000000000000000000000000000000000000000008152600401610871906138f7565b60405180910390fd5b8073ffffffffffffffffffffffffffffffffffffffff16610899611966565b73ffffffffffffffffffffffffffffffffffffffff1614806108c857506108c7816108c2611966565b61166b565b5b610907576040517f08c379a00000000000000000000000000000000000000000000000000000000081526004016108fe906137b7565b60405180910390fd5b610911838361196e565b505050565b600a5481565b61092d610927611966565b82611a27565b61096c576040517f08c379a000000000000000000000000000000000000000000000000000000000815260040161096390613917565b60405180910390fd5b610977838383611b05565b505050565b606060006109b061098c84611d6c565b60405160200161099c91906134fa565b604051602081830303815290604052611f19565b9050600d80549050816109c39190613ccd565b9050600d81815481106109ff577f4e487b7100000000000000000000000000000000000000000000000000000000600052603260045260246000fd5b906000526020600020018054610a1490613c21565b80601f0160208091040260200160405190810160405280929190818152602001828054610a4090613c21565b8015610a8d5780601f10610a6257610100808354040283529160200191610a8d565b820191906000526020600020905b815481529060010190602001808311610a7057829003601f168201915b5050505050915050919050565b610aa2611966565b73ffffffffffffffffffffffffffffffffffffffff16610ac0610f24565b73ffffffffffffffffffffffffffffffffffffffff1614610b16576040517f08c379a0000000000000000000000000000000000000000000000000000000008152600401610b0d906138b7565b60405180910390fd5b6000610b20610f24565b9050600047905060008273ffffffffffffffffffffffffffffffffffffffff1682604051610b4d9061353e565b60006040518083038185875af1925050503d8060008114610b8a576040519150601f19603f3d011682016040523d82523d6000602084013e610b8f565b606091505b5050905080610bd3576040517f08c379a0000000000000000000000000000000000000000000000000000000008152600401610bca90613737565b60405180910390fd5b505050565b610bf383838360405180602001604052806000815250611114565b505050565b60606000610c2c610c0884611d6c565b604051602001610c189190613553565b604051602081830303815290604052611f19565b905060108054905081610c3f9190613ccd565b905060108181548110610c7b577f4e487b7100000000000000000000000000000000000000000000000000000000600052603260045260246000fd5b906000526020600020018054610c9090613c21565b80601f0160208091040260200160405190810160405280929190818152602001828054610cbc90613c21565b8015610d095780601f10610cde57610100808354040283529160200191610d09565b820191906000526020600020905b815481529060010190602001808311610cec57829003601f168201915b5050505050915050919050565b600960009054906101000a900463ffffffff1681565b6000806002600084815260200190815260200160002060009054906101000a900473ffffffffffffffffffffffffffffffffffffffff169050600073ffffffffffffffffffffffffffffffffffffffff168173ffffffffffffffffffffffffffffffffffffffff161415610dd5576040517f08c379a0000000000000000000000000000000000000000000000000000000008152600401610dcc906137f7565b60405180910390fd5b80915050919050565b60008073ffffffffffffffffffffffffffffffffffffffff168273ffffffffffffffffffffffffffffffffffffffff161415610e4f576040517f08c379a0000000000000000000000000000000000000000000000000000000008152600401610e46906137d7565b60405180910390fd5b600360008373ffffffffffffffffffffffffffffffffffffffff1673ffffffffffffffffffffffffffffffffffffffff168152602001908152602001600020549050919050565b60085481565b610ea4611966565b73ffffffffffffffffffffffffffffffffffffffff16610ec2610f24565b73ffffffffffffffffffffffffffffffffffffffff1614610f18576040517f08c379a0000000000000000000000000000000000000000000000000000000008152600401610f0f906138b7565b60405180910390fd5b610f226000611f4c565b565b6000600760009054906101000a900473ffffffffffffffffffffffffffffffffffffffff16905090565b606060018054610f5d90613c21565b80601f0160208091040260200160405190810160405280929190818152602001828054610f8990613c21565b8015610fd65780601f10610fab57610100808354040283529160200191610fd6565b820191906000526020600020905b815481529060010190602001808311610fb957829003601f168201915b5050505050905090565b610ff2610feb611966565b8383612012565b5050565b6060600061102a61100684611d6c565b6040516020016110169190613493565b604051602081830303815290604052611f19565b9050600e805490508161103d9190613ccd565b9050600e8181548110611079577f4e487b7100000000000000000000000000000000000000000000000000000000600052603260045260246000fd5b90600052602060002001805461108e90613c21565b80601f01602080910402602001604051908101604052809291908181526020018280546110ba90613c21565b80156111075780601f106110dc57610100808354040283529160200191611107565b820191906000526020600020905b8154815290600101906020018083116110ea57829003601f168201915b5050505050915050919050565b61112561111f611966565b83611a27565b611164576040517f08c379a000000000000000000000000000000000000000000000000000000000815260040161115b90613917565b60405180910390fd5b6111708484848461217f565b50505050565b606060006111aa61118684611d6c565b6040516020016111969190613471565b604051602081830303815290604052611f19565b9050600f80549050816111bd9190613ccd565b9050600f81815481106111f9577f4e487b7100000000000000000000000000000000000000000000000000000000600052603260045260246000fd5b90600052602060002001805461120e90613c21565b80601f016020809104026020016040519081016040528092919081815260200182805461123a90613c21565b80156112875780601f1061125c57610100808354040283529160200191611287565b820191906000526020600020905b81548152906001019060200180831161126a57829003601f168201915b5050505050915050919050565b606061129f826118fa565b6112de576040517f08c379a00000000000000000000000000000000000000000000000000000000081526004016112d590613877565b60405180910390fd5b60006006600084815260200190815260200160002080546112fe90613c21565b80601f016020809104026020016040519081016040528092919081815260200182805461132a90613c21565b80156113775780601f1061134c57610100808354040283529160200191611377565b820191906000526020600020905b81548152906001019060200180831161135a57829003601f168201915b5050505050905060006113886121db565b905060008151141561139e5781925050506113e1565b6000825111156113d35780826040516020016113bb9291906133b1565b604051602081830303815290604052925050506113e1565b6113dc846121f2565b925050505b919050565b600960009054906101000a900463ffffffff1663ffffffff1660085410611442576040517f08c379a000000000000000000000000000000000000000000000000000000000815260040161143990613837565b60405180910390fd5b600a54341015611487576040517f08c379a000000000000000000000000000000000000000000000000000000000815260040161147e90613937565b60405180910390fd5b600061149460085461097c565b905060006114a3600854610ff6565b905060006114b2600854611176565b905060008383836040516020016114cb939291906133d5565b604051602081830303815290604052905060006114e9600854610bf8565b90506000600b82600c856040516020016115069493929190613406565b6040516020818303038152906040529050600061154b8461152684612299565b6040516020016115379291906134b5565b604051602081830303815290604052612299565b9050600081604051602001611560919061351c565b60405160208183030381529060405290506115cf6040518060400160405280601281526020017f766965772066696e616c205356473a202f6e0000000000000000000000000000815250826040516020016115bb919061344f565b604051602081830303815290604052612457565b6115db336008546124f3565b6115e760085482612511565b61160c60405180606001604052806027815260200161460e6027913960085433612585565b60016008600082825461161f9190613a46565b925050819055507febb98688741ffa4c7589bf325de30cf7becb63de567842e1ccdb6cb949fdc82c336008546040516116599291906135dc565b60405180910390a15050505050505050565b6000600560008473ffffffffffffffffffffffffffffffffffffffff1673ffffffffffffffffffffffffffffffffffffffff16815260200190815260200160002060008373ffffffffffffffffffffffffffffffffffffffff1673ffffffffffffffffffffffffffffffffffffffff16815260200190815260200160002060009054906101000a900460ff16905092915050565b611707611966565b73ffffffffffffffffffffffffffffffffffffffff16611725610f24565b73ffffffffffffffffffffffffffffffffffffffff161461177b576040517f08c379a0000000000000000000000000000000000000000000000000000000008152600401611772906138b7565b60405180910390fd5b600073ffffffffffffffffffffffffffffffffffffffff168173ffffffffffffffffffffffffffffffffffffffff1614156117eb576040517f08c379a00000000000000000000000000000000000000000000000000000000081526004016117e2906136d7565b60405180910390fd5b6117f481611f4c565b50565b61188d8160405160240161180b9190613620565b6040516020818303038152906040527f41304fac000000000000000000000000000000000000000000000000000000007bffffffffffffffffffffffffffffffffffffffffffffffffffffffff19166020820180517bffffffffffffffffffffffffffffffffffffffffffffffffffffffff8381831617835250505050612624565b50565b60007f01ffc9a7000000000000000000000000000000000000000000000000000000007bffffffffffffffffffffffffffffffffffffffffffffffffffffffff1916827bffffffffffffffffffffffffffffffffffffffffffffffffffffffff1916149050919050565b60008073ffffffffffffffffffffffffffffffffffffffff166002600084815260200190815260200160002060009054906101000a900473ffffffffffffffffffffffffffffffffffffffff1673ffffffffffffffffffffffffffffffffffffffff1614159050919050565b600033905090565b816004600083815260200190815260200160002060006101000a81548173ffffffffffffffffffffffffffffffffffffffff021916908373ffffffffffffffffffffffffffffffffffffffff160217905550808273ffffffffffffffffffffffffffffffffffffffff166119e183610d2c565b73ffffffffffffffffffffffffffffffffffffffff167f8c5be1e5ebec7d5bd14f71427d1e84f3dd0314c0f7b2291e5b200ac8c7c3b92560405160405180910390a45050565b6000611a32826118fa565b611a71576040517f08c379a0000000000000000000000000000000000000000000000000000000008152600401611a6890613797565b60405180910390fd5b6000611a7c83610d2c565b90508073ffffffffffffffffffffffffffffffffffffffff168473ffffffffffffffffffffffffffffffffffffffff161480611aeb57508373ffffffffffffffffffffffffffffffffffffffff16611ad384610779565b73ffffffffffffffffffffffffffffffffffffffff16145b80611afc5750611afb818561166b565b5b91505092915050565b8273ffffffffffffffffffffffffffffffffffffffff16611b2582610d2c565b73ffffffffffffffffffffffffffffffffffffffff1614611b7b576040517f08c379a0000000000000000000000000000000000000000000000000000000008152600401611b72906136f7565b60405180910390fd5b600073ffffffffffffffffffffffffffffffffffffffff168273ffffffffffffffffffffffffffffffffffffffff161415611beb576040517f08c379a0000000000000000000000000000000000000000000000000000000008152600401611be290613757565b60405180910390fd5b611bf683838361264d565b611c0160008261196e565b6001600360008573ffffffffffffffffffffffffffffffffffffffff1673ffffffffffffffffffffffffffffffffffffffff1681526020019081526020016000206000828254611c519190613b27565b925050819055506001600360008473ffffffffffffffffffffffffffffffffffffffff1673ffffffffffffffffffffffffffffffffffffffff1681526020019081526020016000206000828254611ca89190613a46565b92505081905550816002600083815260200190815260200160002060006101000a81548173ffffffffffffffffffffffffffffffffffffffff021916908373ffffffffffffffffffffffffffffffffffffffff160217905550808273ffffffffffffffffffffffffffffffffffffffff168473ffffffffffffffffffffffffffffffffffffffff167fddf252ad1be2c89b69c2b068fc378daa952ba7f163c4a11628f55a4df523b3ef60405160405180910390a4611d67838383612652565b505050565b60606000821415611db4576040518060400160405280600181526020017f30000000000000000000000000000000000000000000000000000000000000008152509050611f14565b600082905060005b60008214611de6578080611dcf90613c84565b915050600a82611ddf9190613a9c565b9150611dbc565b60008167ffffffffffffffff811115611e28577f4e487b7100000000000000000000000000000000000000000000000000000000600052604160045260246000fd5b6040519080825280601f01601f191660200182016040528015611e5a5781602001600182028036833780820191505090505b5090505b60008514611f0d57600182611e739190613b27565b9150600a85611e829190613ccd565b6030611e8e9190613a46565b60f81b818381518110611eca577f4e487b7100000000000000000000000000000000000000000000000000000000600052603260045260246000fd5b60200101907effffffffffffffffffffffffffffffffffffffffffffffffffffffffffffff1916908160001a905350600a85611f069190613a9c565b9450611e5e565b8093505050505b919050565b600081604051602001611f2c919061339a565b6040516020818303038152906040528051906020012060001c9050919050565b6000600760009054906101000a900473ffffffffffffffffffffffffffffffffffffffff16905081600760006101000a81548173ffffffffffffffffffffffffffffffffffffffff021916908373ffffffffffffffffffffffffffffffffffffffff1602179055508173ffffffffffffffffffffffffffffffffffffffff168173ffffffffffffffffffffffffffffffffffffffff167f8be0079c531659141344cd1fd0a4f28419497f9722a3daafe3b4186f6b6457e060405160405180910390a35050565b8173ffffffffffffffffffffffffffffffffffffffff168373ffffffffffffffffffffffffffffffffffffffff161415612081576040517f08c379a000000000000000000000000000000000000000000000000000000000815260040161207890613777565b60405180910390fd5b80600560008573ffffffffffffffffffffffffffffffffffffffff1673ffffffffffffffffffffffffffffffffffffffff16815260200190815260200160002060008473ffffffffffffffffffffffffffffffffffffffff1673ffffffffffffffffffffffffffffffffffffffff16815260200190815260200160002060006101000a81548160ff0219169083151502179055508173ffffffffffffffffffffffffffffffffffffffff168373ffffffffffffffffffffffffffffffffffffffff167f17307eab39ab6107e8899845ad3d59bd9653f200f220920489ca2b5937696c31836040516121729190613605565b60405180910390a3505050565b61218a848484611b05565b61219684848484612657565b6121d5576040517f08c379a00000000000000000000000000000000000000000000000000000000081526004016121cc906136b7565b60405180910390fd5b50505050565b606060405180602001604052806000815250905090565b60606121fd826118fa565b61223c576040517f08c379a0000000000000000000000000000000000000000000000000000000008152600401612233906138d7565b60405180910390fd5b60006122466121db565b905060008151116122665760405180602001604052806000815250612291565b8061227084611d6c565b6040516020016122819291906133b1565b6040516020818303038152906040525b915050919050565b606060008251905060008114156122c25760405180602001604052806000815250915050612452565b600060036002836122d39190613a46565b6122dd9190613a9c565b60046122e99190613acd565b905060006020826122fa9190613a46565b67ffffffffffffffff811115612339577f4e487b7100000000000000000000000000000000000000000000000000000000600052604160045260246000fd5b6040519080825280601f01601f19166020018201604052801561236b5781602001600182028036833780820191505090505b50905060006040518060600160405280604081526020016145ce604091399050600181016020830160005b8681101561240f5760038101905062ffffff818a015116603f8160121c168401518060081b905060ff603f83600c1c1686015116810190508060081b905060ff603f8360061c1686015116810190508060081b905060ff603f831686015116810190508060e01b90508084526004840193505050612396565b506003860660018114612429576002811461243957612444565b613d3d60f01b6002830352612444565b603d60f81b60018303525b508484525050819450505050505b919050565b6124ef828260405160240161246d929190613642565b6040516020818303038152906040527f4b5c4277000000000000000000000000000000000000000000000000000000007bffffffffffffffffffffffffffffffffffffffffffffffffffffffff19166020820180517bffffffffffffffffffffffffffffffffffffffffffffffffffffffff8381831617835250505050612624565b5050565b61250d8282604051806020016040528060008152506127ee565b5050565b61251a826118fa565b612559576040517f08c379a000000000000000000000000000000000000000000000000000000000815260040161255090613817565b60405180910390fd5b80600660008481526020019081526020016000209080519060200190612580929190612a46565b505050565b61261f83838360405160240161259d93929190613679565b6040516020818303038152906040527fe3849f79000000000000000000000000000000000000000000000000000000007bffffffffffffffffffffffffffffffffffffffffffffffffffffffff19166020820180517bffffffffffffffffffffffffffffffffffffffffffffffffffffffff8381831617835250505050612624565b505050565b60008151905060006a636f6e736f6c652e6c6f679050602083016000808483855afa5050505050565b505050565b505050565b60006126788473ffffffffffffffffffffffffffffffffffffffff16612849565b156127e1578373ffffffffffffffffffffffffffffffffffffffff1663150b7a026126a1611966565b8786866040518563ffffffff1660e01b81526004016126c39493929190613590565b602060405180830381600087803b1580156126dd57600080fd5b505af192505050801561270e57506040513d601f19601f8201168201806040525081019061270b9190612d8a565b60015b612791573d806000811461273e576040519150601f19603f3d011682016040523d82523d6000602084013e612743565b606091505b50600081511415612789576040517f08c379a0000000000000000000000000000000000000000000000000000000008152600401612780906136b7565b60405180910390fd5b805181602001fd5b63150b7a0260e01b7bffffffffffffffffffffffffffffffffffffffffffffffffffffffff1916817bffffffffffffffffffffffffffffffffffffffffffffffffffffffff1916149150506127e6565b600190505b949350505050565b6127f8838361286c565b6128056000848484612657565b612844576040517f08c379a000000000000000000000000000000000000000000000000000000000815260040161283b906136b7565b60405180910390fd5b505050565b6000808273ffffffffffffffffffffffffffffffffffffffff163b119050919050565b600073ffffffffffffffffffffffffffffffffffffffff168273ffffffffffffffffffffffffffffffffffffffff1614156128dc576040517f08c379a00000000000000000000000000000000000000000000000000000000081526004016128d390613857565b60405180910390fd5b6128e5816118fa565b15612925576040517f08c379a000000000000000000000000000000000000000000000000000000000815260040161291c90613717565b60405180910390fd5b6129316000838361264d565b6001600360008473ffffffffffffffffffffffffffffffffffffffff1673ffffffffffffffffffffffffffffffffffffffff16815260200190815260200160002060008282546129819190613a46565b92505081905550816002600083815260200190815260200160002060006101000a81548173ffffffffffffffffffffffffffffffffffffffff021916908373ffffffffffffffffffffffffffffffffffffffff160217905550808273ffffffffffffffffffffffffffffffffffffffff16600073ffffffffffffffffffffffffffffffffffffffff167fddf252ad1be2c89b69c2b068fc378daa952ba7f163c4a11628f55a4df523b3ef60405160405180910390a4612a4260008383612652565b5050565b828054612a5290613c21565b90600052602060002090601f016020900481019282612a745760008555612abb565b82601f10612a8d57805160ff1916838001178555612abb565b82800160010185558215612abb579182015b82811115612aba578251825591602001919060010190612a9f565b5b509050612ac89190612acc565b5090565b5b80821115612ae5576000816000905550600101612acd565b5090565b6000612afc612af7846139b2565b61398d565b905082815260208101848484011115612b1457600080fd5b612b1f848285613bdf565b509392505050565b600081359050612b3681614571565b92915050565b600081359050612b4b81614588565b92915050565b600081359050612b608161459f565b92915050565b600081519050612b758161459f565b92915050565b600082601f830112612b8c57600080fd5b8135612b9c848260208601612ae9565b91505092915050565b600081359050612bb4816145b6565b92915050565b600060208284031215612bcc57600080fd5b6000612bda84828501612b27565b91505092915050565b60008060408385031215612bf657600080fd5b6000612c0485828601612b27565b9250506020612c1585828601612b27565b9150509250929050565b600080600060608486031215612c3457600080fd5b6000612c4286828701612b27565b9350506020612c5386828701612b27565b9250506040612c6486828701612ba5565b9150509250925092565b60008060008060808587031215612c8457600080fd5b6000612c9287828801612b27565b9450506020612ca387828801612b27565b9350506040612cb487828801612ba5565b925050606085013567ffffffffffffffff811115612cd157600080fd5b612cdd87828801612b7b565b91505092959194509250565b60008060408385031215612cfc57600080fd5b6000612d0a85828601612b27565b9250506020612d1b85828601612b3c565b9150509250929050565b60008060408385031215612d3857600080fd5b6000612d4685828601612b27565b9250506020612d5785828601612ba5565b9150509250929050565b600060208284031215612d7357600080fd5b6000612d8184828501612b51565b91505092915050565b600060208284031215612d9c57600080fd5b6000612daa84828501612b66565b91505092915050565b600060208284031215612dc557600080fd5b6000612dd384828501612ba5565b91505092915050565b612de581613b5b565b82525050565b612df481613b6d565b82525050565b6000612e05826139f8565b612e0f8185613a0e565b9350612e1f818560208601613bee565b612e2881613dba565b840191505092915050565b6000612e3e82613a03565b612e488185613a2a565b9350612e58818560208601613bee565b612e6181613dba565b840191505092915050565b6000612e7782613a03565b612e818185613a3b565b9350612e91818560208601613bee565b80840191505092915050565b60008154612eaa81613c21565b612eb48186613a3b565b94506001821660008114612ecf5760018114612ee057612f13565b60ff19831686528186019350612f13565b612ee9856139e3565b60005b83811015612f0b57815481890152600182019150602081019050612eec565b838801955050505b50505092915050565b6000612f29602583613a3b565b9150612f3482613dcb565b602582019050919050565b6000612f4c603283613a2a565b9150612f5782613e1a565b604082019050919050565b6000612f6f602683613a2a565b9150612f7a82613e69565b604082019050919050565b6000612f92602583613a2a565b9150612f9d82613eb8565b604082019050919050565b6000612fb5601c83613a2a565b9150612fc082613f07565b602082019050919050565b6000612fd8600a83613a3b565b9150612fe382613f30565b600a82019050919050565b6000612ffb601483613a2a565b915061300682613f59565b602082019050919050565b600061301e602483613a2a565b915061302982613f82565b604082019050919050565b6000613041601983613a2a565b915061304c82613fd1565b602082019050919050565b6000613064606383613a3b565b915061306f82613ffa565b606382019050919050565b6000613087600b83613a3b565b915061309282614095565b600b82019050919050565b60006130aa602c83613a2a565b91506130b5826140be565b604082019050919050565b60006130cd600d83613a3b565b91506130d88261410d565b600d82019050919050565b60006130f0603883613a2a565b91506130fb82614136565b604082019050919050565b6000613113602a83613a2a565b915061311e82614185565b604082019050919050565b6000613136602983613a2a565b9150613141826141d4565b604082019050919050565b6000613159602e83613a2a565b915061316482614223565b604082019050919050565b600061317c601b83613a2a565b915061318782614272565b602082019050919050565b600061319f600283613a3b565b91506131aa8261429b565b600282019050919050565b60006131c2602083613a2a565b91506131cd826142c4565b602082019050919050565b60006131e5603183613a2a565b91506131f0826142ed565b604082019050919050565b6000613208602c83613a2a565b91506132138261433c565b604082019050919050565b600061322b602083613a2a565b91506132368261438b565b602082019050919050565b600061324e602f83613a2a565b9150613259826143b4565b604082019050919050565b6000613271600a83613a3b565b915061327c82614403565b600a82019050919050565b6000613294602183613a2a565b915061329f8261442c565b604082019050919050565b60006132b7600a83613a3b565b91506132c28261447b565b600a82019050919050565b60006132da601d83613a3b565b91506132e5826144a4565b601d82019050919050565b60006132fd600083613a1f565b9150613308826144cd565b600082019050919050565b6000613320603183613a2a565b915061332b826144d0565b604082019050919050565b6000613343601583613a2a565b915061334e8261451f565b602082019050919050565b6000613366600583613a3b565b915061337182614548565b600582019050919050565b61338581613bc5565b82525050565b61339481613bcf565b82525050565b60006133a68284612e6c565b915081905092915050565b60006133bd8285612e6c565b91506133c98284612e6c565b91508190509392505050565b60006133e18286612e6c565b91506133ed8285612e6c565b91506133f98284612e6c565b9150819050949350505050565b60006134128287612e9d565b915061341e8286612e6c565b915061342a8285612e9d565b91506134368284612e6c565b9150613441826130c0565b915081905095945050505050565b600061345a82612f1c565b91506134668284612e6c565b915081905092915050565b600061347c82612fcb565b91506134888284612e6c565b915081905092915050565b600061349e8261307a565b91506134aa8284612e6c565b915081905092915050565b60006134c082613264565b91506134cc8285612e6c565b91506134d782613057565b91506134e38284612e6c565b91506134ee82613192565b91508190509392505050565b6000613505826132aa565b91506135118284612e6c565b915081905092915050565b6000613527826132cd565b91506135338284612e6c565b915081905092915050565b6000613549826132f0565b9150819050919050565b600061355e82613359565b915061356a8284612e6c565b915081905092915050565b600060208201905061358a6000830184612ddc565b92915050565b60006080820190506135a56000830187612ddc565b6135b26020830186612ddc565b6135bf604083018561337c565b81810360608301526135d18184612dfa565b905095945050505050565b60006040820190506135f16000830185612ddc565b6135fe602083018461337c565b9392505050565b600060208201905061361a6000830184612deb565b92915050565b6000602082019050818103600083015261363a8184612e33565b905092915050565b6000604082019050818103600083015261365c8185612e33565b905081810360208301526136708184612e33565b90509392505050565b600060608201905081810360008301526136938186612e33565b90506136a2602083018561337c565b6136af6040830184612ddc565b949350505050565b600060208201905081810360008301526136d081612f3f565b9050919050565b600060208201905081810360008301526136f081612f62565b9050919050565b6000602082019050818103600083015261371081612f85565b9050919050565b6000602082019050818103600083015261373081612fa8565b9050919050565b6000602082019050818103600083015261375081612fee565b9050919050565b6000602082019050818103600083015261377081613011565b9050919050565b6000602082019050818103600083015261379081613034565b9050919050565b600060208201905081810360008301526137b08161309d565b9050919050565b600060208201905081810360008301526137d0816130e3565b9050919050565b600060208201905081810360008301526137f081613106565b9050919050565b6000602082019050818103600083015261381081613129565b9050919050565b600060208201905081810360008301526138308161314c565b9050919050565b600060208201905081810360008301526138508161316f565b9050919050565b60006020820190508181036000830152613870816131b5565b9050919050565b60006020820190508181036000830152613890816131d8565b9050919050565b600060208201905081810360008301526138b0816131fb565b9050919050565b600060208201905081810360008301526138d08161321e565b9050919050565b600060208201905081810360008301526138f081613241565b9050919050565b6000602082019050818103600083015261391081613287565b9050919050565b6000602082019050818103600083015261393081613313565b9050919050565b6000602082019050818103600083015261395081613336565b9050919050565b600060208201905061396c600083018461337c565b92915050565b6000602082019050613987600083018461338b565b92915050565b60006139976139a8565b90506139a38282613c53565b919050565b6000604051905090565b600067ffffffffffffffff8211156139cd576139cc613d8b565b5b6139d682613dba565b9050602081019050919050565b60008190508160005260206000209050919050565b600081519050919050565b600081519050919050565b600082825260208201905092915050565b600081905092915050565b600082825260208201905092915050565b600081905092915050565b6000613a5182613bc5565b9150613a5c83613bc5565b9250827fffffffffffffffffffffffffffffffffffffffffffffffffffffffffffffffff03821115613a9157613a90613cfe565b5b828201905092915050565b6000613aa782613bc5565b9150613ab283613bc5565b925082613ac257613ac1613d2d565b5b828204905092915050565b6000613ad882613bc5565b9150613ae383613bc5565b9250817fffffffffffffffffffffffffffffffffffffffffffffffffffffffffffffffff0483118215151615613b1c57613b1b613cfe565b5b828202905092915050565b6000613b3282613bc5565b9150613b3d83613bc5565b925082821015613b5057613b4f613cfe565b5b828203905092915050565b6000613b6682613ba5565b9050919050565b60008115159050919050565b60007fffffffff0000000000000000000000000000000000000000000000000000000082169050919050565b600073ffffffffffffffffffffffffffffffffffffffff82169050919050565b6000819050919050565b600063ffffffff82169050919050565b82818337600083830152505050565b60005b83811015613c0c578082015181840152602081019050613bf1565b83811115613c1b576000848401525b50505050565b60006002820490506001821680613c3957607f821691505b60208210811415613c4d57613c4c613d5c565b5b50919050565b613c5c82613dba565b810181811067ffffffffffffffff82111715613c7b57613c7a613d8b565b5b80604052505050565b6000613c8f82613bc5565b91507fffffffffffffffffffffffffffffffffffffffffffffffffffffffffffffffff821415613cc257613cc1613cfe565b5b600182019050919050565b6000613cd882613bc5565b9150613ce383613bc5565b925082613cf357613cf2613d2d565b5b828206905092915050565b7f4e487b7100000000000000000000000000000000000000000000000000000000600052601160045260246000fd5b7f4e487b7100000000000000000000000000000000000000000000000000000000600052601260045260246000fd5b7f4e487b7100000000000000000000000000000000000000000000000000000000600052602260045260246000fd5b7f4e487b7100000000000000000000000000000000000000000000000000000000600052604160045260246000fd5b6000601f19601f8301169050919050565b7f68747470733a2f2f6e6674707265766965772e30786465762e636f6465732f3f60008201527f636f64653d000000000000000000000000000000000000000000000000000000602082015250565b7f4552433732313a207472616e7366657220746f206e6f6e20455243373231526560008201527f63656976657220696d706c656d656e7465720000000000000000000000000000602082015250565b7f4f776e61626c653a206e6577206f776e657220697320746865207a65726f206160008201527f6464726573730000000000000000000000000000000000000000000000000000602082015250565b7f4552433732313a207472616e736665722066726f6d20696e636f72726563742060008201527f6f776e6572000000000000000000000000000000000000000000000000000000602082015250565b7f4552433732313a20746f6b656e20616c7265616479206d696e74656400000000600082015250565b7f54484952445f574f524400000000000000000000000000000000000000000000600082015250565b7f4661696c656420746f2073656e64204574686572000000000000000000000000600082015250565b7f4552433732313a207472616e7366657220746f20746865207a65726f2061646460008201527f7265737300000000000000000000000000000000000000000000000000000000602082015250565b7f4552433732313a20617070726f766520746f2063616c6c657200000000000000600082015250565b7f222c20226465736372697074696f6e223a20224120686967686c79206163636c60008201527f61696d656420636f6c6c656374696f6e206f6620737175617265732e222c202260208201527f696d616765223a2022646174613a696d6167652f7376672b786d6c3b6261736560408201527f36342c0000000000000000000000000000000000000000000000000000000000606082015250565b7f5345434f4e445f574f5244000000000000000000000000000000000000000000600082015250565b7f4552433732313a206f70657261746f7220717565727920666f72206e6f6e657860008201527f697374656e7420746f6b656e0000000000000000000000000000000000000000602082015250565b7f3c2f746578743e3c2f7376673e00000000000000000000000000000000000000600082015250565b7f4552433732313a20617070726f76652063616c6c6572206973206e6f74206f7760008201527f6e6572206e6f7220617070726f76656420666f7220616c6c0000000000000000602082015250565b7f4552433732313a2062616c616e636520717565727920666f7220746865207a6560008201527f726f206164647265737300000000000000000000000000000000000000000000602082015250565b7f4552433732313a206f776e657220717565727920666f72206e6f6e657869737460008201527f656e7420746f6b656e0000000000000000000000000000000000000000000000602082015250565b7f45524337323155524953746f726167653a2055524920736574206f66206e6f6e60008201527f6578697374656e7420746f6b656e000000000000000000000000000000000000602082015250565b7f4578636565646564206d6178696d756d204e465420737570706c790000000000600082015250565b7f227d000000000000000000000000000000000000000000000000000000000000600082015250565b7f4552433732313a206d696e7420746f20746865207a65726f2061646472657373600082015250565b7f45524337323155524953746f726167653a2055524920717565727920666f722060008201527f6e6f6e6578697374656e7420746f6b656e000000000000000000000000000000602082015250565b7f4552433732313a20617070726f76656420717565727920666f72206e6f6e657860008201527f697374656e7420746f6b656e0000000000000000000000000000000000000000602082015250565b7f4f776e61626c653a2063616c6c6572206973206e6f7420746865206f776e6572600082015250565b7f4552433732314d657461646174613a2055524920717565727920666f72206e6f60008201527f6e6578697374656e7420746f6b656e0000000000000000000000000000000000602082015250565b7f7b226e616d65223a202200000000000000000000000000000000000000000000600082015250565b7f4552433732313a20617070726f76616c20746f2063757272656e74206f776e6560008201527f7200000000000000000000000000000000000000000000000000000000000000602082015250565b7f46495253545f574f524400000000000000000000000000000000000000000000600082015250565b7f646174613a6170706c69636174696f6e2f6a736f6e3b6261736536342c000000600082015250565b50565b7f4552433732313a207472616e736665722063616c6c6572206973206e6f74206f60008201527f776e6572206e6f7220617070726f766564000000000000000000000000000000602082015250565b7f4e6f7420656e6f7567682065746865722073656e740000000000000000000000600082015250565b7f434f4c4f52000000000000000000000000000000000000000000000000000000600082015250565b61457a81613b5b565b811461458557600080fd5b50565b61459181613b6d565b811461459c57600080fd5b50565b6145a881613b79565b81146145b357600080fd5b50565b6145bf81613bc5565b81146145ca57600080fd5b5056fe4142434445464748494a4b4c4d4e4f505152535455565758595a6162636465666768696a6b6c6d6e6f707172737475767778797a303132333435363738392b2f416e204e4654207769746820494420257320686173206265656e206d696e74656420746f202573a2646970667358221220119fdff0727761a34f3ce2e5ff6f2496f928d923909c8aa58d33a077b25f430264736f6c634300080400333c73766720786d6c6e733d27687474703a2f2f7777772e77332e6f72672f323030302f73766727207072657365727665417370656374526174696f3d27784d696e594d696e206d656574272076696577426f783d273020302033353020333530273e3c7374796c653e2e62617365207b2066696c6c3a2077686974653b20666f6e742d66616d696c793a2073657269663b20666f6e742d73697a653a20323470783b207d3c2f7374796c653e3c726563742077696474683d273130302527206865696768743d2731303025272066696c6c3d2727202f3e3c7465787420783d273530252720793d273530252720636c6173733d27626173652720646f6d696e616e742d626173656c696e653d276d6964646c652720746578742d616e63686f723d276d6964646c65273e",
  "linkReferences": {},
  "deployedLinkReferences": {}
}